{
  "contractName": "YoutubeClone",
  "abi": [
    {
      "anonymous": false,
      "inputs": [
        {
          "indexed": false,
          "internalType": "uint256",
          "name": "id",
          "type": "uint256"
        },
        {
          "indexed": false,
          "internalType": "string",
          "name": "hash",
          "type": "string"
        },
        {
          "indexed": false,
          "internalType": "string",
          "name": "title",
          "type": "string"
        },
        {
          "indexed": false,
          "internalType": "address",
          "name": "author",
          "type": "address"
        }
      ],
      "name": "VideoUploaded",
      "type": "event"
    },
    {
      "constant": true,
      "inputs": [],
      "name": "videoCount",
      "outputs": [
        {
          "internalType": "uint256",
          "name": "",
          "type": "uint256"
        }
      ],
      "payable": false,
      "stateMutability": "view",
      "type": "function"
    },
    {
      "constant": true,
      "inputs": [
        {
          "internalType": "uint256",
          "name": "",
          "type": "uint256"
        }
      ],
      "name": "videos",
      "outputs": [
        {
          "internalType": "uint256",
          "name": "id",
          "type": "uint256"
        },
        {
          "internalType": "string",
          "name": "hash",
          "type": "string"
        },
        {
          "internalType": "string",
          "name": "title",
          "type": "string"
        },
        {
          "internalType": "address",
          "name": "author",
          "type": "address"
        }
      ],
      "payable": false,
      "stateMutability": "view",
      "type": "function"
    },
    {
      "constant": false,
      "inputs": [
        {
          "internalType": "string",
          "name": "_videoHash",
          "type": "string"
        },
        {
          "internalType": "string",
          "name": "_title",
          "type": "string"
        }
      ],
      "name": "UploadVideos",
      "outputs": [],
      "payable": false,
      "stateMutability": "nonpayable",
      "type": "function"
    }
  ],
  "bytecode": "0x60806040526000805534801561001457600080fd5b50610932806100246000396000f3fe608060405234801561001057600080fd5b50600436106100415760003560e01c806332d8d17114610046578063c61b5f4c14610198578063e6821bf5146101b6575b600080fd5b6101966004803603604081101561005c57600080fd5b810190808035906020019064010000000081111561007957600080fd5b82018360208201111561008b57600080fd5b803590602001918460018302840111640100000000831117156100ad57600080fd5b91908080601f016020809104026020016040519081016040528093929190818152602001838380828437600081840152601f19601f8201169050808301925050505050505091929192908035906020019064010000000081111561011057600080fd5b82018360208201111561012257600080fd5b8035906020019184600183028401116401000000008311171561014457600080fd5b91908080601f016020809104026020016040519081016040528093929190818152602001838380828437600081840152601f19601f820116905080830192505050505050509192919290505050610303565b005b6101a06106ae565b6040518082815260200191505060405180910390f35b6101e2600480360360208110156101cc57600080fd5b81019080803590602001909291905050506106b4565b6040518085815260200180602001806020018473ffffffffffffffffffffffffffffffffffffffff1673ffffffffffffffffffffffffffffffffffffffff168152602001838103835286818151815260200191508051906020019080838360005b8381101561025e578082015181840152602081019050610243565b50505050905090810190601f16801561028b5780820380516001836020036101000a031916815260200191505b50838103825285818151815260200191508051906020019080838360005b838110156102c45780820151818401526020810190506102a9565b50505050905090810190601f1680156102f15780820380516001836020036101000a031916815260200191505b50965050505050505060405180910390f35b600082511161035d576040517f08c379a00000000000000000000000000000000000000000000000000000000081526004018080602001828103825260248152602001806108da6024913960400191505060405180910390fd5b60008151116103d4576040517f08c379a00000000000000000000000000000000000000000000000000000000081526004018080602001828103825260208152602001807f5469746c6520206d7573742062652067726561746572207468616e207a65726f81525060200191505060405180910390fd5b600073ffffffffffffffffffffffffffffffffffffffff163373ffffffffffffffffffffffffffffffffffffffff161415610477576040517f08c379a000000000000000000000000000000000000000000000000000000000815260040180806020018281038252600c8152602001807f496e76616c69642055736572000000000000000000000000000000000000000081525060200191505060405180910390fd5b6000808154809291906001019190505550604051806080016040528060005481526020018381526020018281526020013373ffffffffffffffffffffffffffffffffffffffff1681525060016000805481526020019081526020016000206000820151816000015560208201518160010190805190602001906104fb929190610834565b506040820151816002019080519060200190610518929190610834565b5060608201518160030160006101000a81548173ffffffffffffffffffffffffffffffffffffffff021916908373ffffffffffffffffffffffffffffffffffffffff1602179055509050507f2c44b862f4b4e08a26a765f9499900759a9ec95360a6f174d53163bd5d367f676000548383336040518085815260200180602001806020018473ffffffffffffffffffffffffffffffffffffffff1673ffffffffffffffffffffffffffffffffffffffff168152602001838103835286818151815260200191508051906020019080838360005b838110156106065780820151818401526020810190506105eb565b50505050905090810190601f1680156106335780820380516001836020036101000a031916815260200191505b50838103825285818151815260200191508051906020019080838360005b8381101561066c578082015181840152602081019050610651565b50505050905090810190601f1680156106995780820380516001836020036101000a031916815260200191505b50965050505050505060405180910390a15050565b60005481565b6001602052806000526040600020600091509050806000015490806001018054600181600116156101000203166002900480601f0160208091040260200160405190810160405280929190818152602001828054600181600116156101000203166002900480156107665780601f1061073b57610100808354040283529160200191610766565b820191906000526020600020905b81548152906001019060200180831161074957829003601f168201915b505050505090806002018054600181600116156101000203166002900480601f0160208091040260200160405190810160405280929190818152602001828054600181600116156101000203166002900480156108045780601f106107d957610100808354040283529160200191610804565b820191906000526020600020905b8154815290600101906020018083116107e757829003601f168201915b5050505050908060030160009054906101000a900473ffffffffffffffffffffffffffffffffffffffff16905084565b828054600181600116156101000203166002900490600052602060002090601f016020900481019282601f1061087557805160ff19168380011785556108a3565b828001600101855582156108a3579182015b828111156108a2578251825591602001919060010190610887565b5b5090506108b091906108b4565b5090565b6108d691905b808211156108d25760008160009055506001016108ba565b5090565b9056fe566964656f2048617368206d7573742062652067726561746572207468616e207a65726fa265627a7a72315820d4b98e76e3ab80ae6ccab6d9fa50b53dff6da8c7d98471ae1a33b31402fabe6864736f6c63430005100032",
  "source": "// SPDX-License-Identifier: MIT\r\npragma solidity >=0.5.16 <=0.8.9;\r\n\r\n// Step 1 : Model the video  --> Done\r\n// Step 2 : Upload the video\r\n// Step 3 : Store  the video\r\n// Step 4: List The videos  --> Done\r\n\r\n\r\n\r\n\r\ncontract YoutubeClone {\r\n\r\n    struct Video {\r\n    uint256 id;\r\n    string hash;\r\n    string title;\r\n    address author;\r\n}\r\n\r\n\r\n    uint public videoCount =0;\r\n\r\n    mapping (uint => Video) public videos;\r\n\r\n    event VideoUploaded(\r\n\r\n        uint256 id,\r\n        string hash,\r\n        string title,\r\n        address author\r\n    );\r\n\r\n\r\n\r\n    function UploadVideos(string memory _videoHash,string memory _title) public{\r\n\r\n        // Video Hash length must be greater than zero\r\n        require(bytes(_videoHash).length > 0,\"Video Hash must be greater than zero\");\r\n\r\n\r\n        // Check the title\r\n        require(bytes(_title).length > 0,\"Title  must be greater than zero\");\r\n\r\n\r\n        // Check the User\r\n        require(msg.sender != address(0),\"Invalid User\");\r\n\r\n\r\n        // Increment the video count\r\n        videoCount++;\r\n\r\n        // Add the video in blockchain\r\n        videos[videoCount]=Video(videoCount,_videoHash,_title,msg.sender);\r\n\r\n        // trigger the event\r\n        emit VideoUploaded (videoCount,_videoHash,_title,msg.sender);\r\n\r\n    }\r\n\r\n}\r\n",
  "sourcePath": "D:\\BlockChain\\Projects\\Youtube-clone-with-blockhain\\contracts\\YoutubeContracr.sol",
  "compiler": {
    "name": "solc",
    "version": "0.5.16+commit.9c3226ce.Emscripten.clang"
  },
  "schemaVersion": "3.4.7",
  "updatedAt": "2022-05-31T05:03:46.407Z",
  "networkType": "ethereum",
  "devdoc": {
    "methods": {}
  },
  "userdoc": {
    "methods": {}
  }
}